{
  "_format": "hh-sol-artifact-1",
  "contractName": "LW3Punks",
  "sourceName": "contracts/LW3Punks.sol",
  "abi": [
    {
      "inputs": [
        {
          "internalType": "string",
          "name": "baseURI",
          "type": "string"
        }
      ],
      "stateMutability": "nonpayable",
      "type": "constructor"
    },
    {
      "anonymous": false,
      "inputs": [
        {
          "indexed": true,
          "internalType": "address",
          "name": "owner",
          "type": "address"
        },
        {
          "indexed": true,
          "internalType": "address",
          "name": "approved",
          "type": "address"
        },
        {
          "indexed": true,
          "internalType": "uint256",
          "name": "tokenId",
          "type": "uint256"
        }
      ],
      "name": "Approval",
      "type": "event"
    },
    {
      "anonymous": false,
      "inputs": [
        {
          "indexed": true,
          "internalType": "address",
          "name": "owner",
          "type": "address"
        },
        {
          "indexed": true,
          "internalType": "address",
          "name": "operator",
          "type": "address"
        },
        {
          "indexed": false,
          "internalType": "bool",
          "name": "approved",
          "type": "bool"
        }
      ],
      "name": "ApprovalForAll",
      "type": "event"
    },
    {
      "anonymous": false,
      "inputs": [
        {
          "indexed": true,
          "internalType": "address",
          "name": "previousOwner",
          "type": "address"
        },
        {
          "indexed": true,
          "internalType": "address",
          "name": "newOwner",
          "type": "address"
        }
      ],
      "name": "OwnershipTransferred",
      "type": "event"
    },
    {
      "anonymous": false,
      "inputs": [
        {
          "indexed": true,
          "internalType": "address",
          "name": "from",
          "type": "address"
        },
        {
          "indexed": true,
          "internalType": "address",
          "name": "to",
          "type": "address"
        },
        {
          "indexed": true,
          "internalType": "uint256",
          "name": "tokenId",
          "type": "uint256"
        }
      ],
      "name": "Transfer",
      "type": "event"
    },
    {
      "stateMutability": "payable",
      "type": "fallback"
    },
    {
      "inputs": [],
      "name": "_paused",
      "outputs": [
        {
          "internalType": "bool",
          "name": "",
          "type": "bool"
        }
      ],
      "stateMutability": "view",
      "type": "function"
    },
    {
      "inputs": [],
      "name": "_price",
      "outputs": [
        {
          "internalType": "uint256",
          "name": "",
          "type": "uint256"
        }
      ],
      "stateMutability": "view",
      "type": "function"
    },
    {
      "inputs": [
        {
          "internalType": "address",
          "name": "to",
          "type": "address"
        },
        {
          "internalType": "uint256",
          "name": "tokenId",
          "type": "uint256"
        }
      ],
      "name": "approve",
      "outputs": [],
      "stateMutability": "nonpayable",
      "type": "function"
    },
    {
      "inputs": [
        {
          "internalType": "address",
          "name": "owner",
          "type": "address"
        }
      ],
      "name": "balanceOf",
      "outputs": [
        {
          "internalType": "uint256",
          "name": "",
          "type": "uint256"
        }
      ],
      "stateMutability": "view",
      "type": "function"
    },
    {
      "inputs": [
        {
          "internalType": "uint256",
          "name": "tokenId",
          "type": "uint256"
        }
      ],
      "name": "getApproved",
      "outputs": [
        {
          "internalType": "address",
          "name": "",
          "type": "address"
        }
      ],
      "stateMutability": "view",
      "type": "function"
    },
    {
      "inputs": [
        {
          "internalType": "address",
          "name": "owner",
          "type": "address"
        },
        {
          "internalType": "address",
          "name": "operator",
          "type": "address"
        }
      ],
      "name": "isApprovedForAll",
      "outputs": [
        {
          "internalType": "bool",
          "name": "",
          "type": "bool"
        }
      ],
      "stateMutability": "view",
      "type": "function"
    },
    {
      "inputs": [],
      "name": "maxTokenIds",
      "outputs": [
        {
          "internalType": "uint256",
          "name": "",
          "type": "uint256"
        }
      ],
      "stateMutability": "view",
      "type": "function"
    },
    {
      "inputs": [],
      "name": "mint",
      "outputs": [],
      "stateMutability": "payable",
      "type": "function"
    },
    {
      "inputs": [],
      "name": "name",
      "outputs": [
        {
          "internalType": "string",
          "name": "",
          "type": "string"
        }
      ],
      "stateMutability": "view",
      "type": "function"
    },
    {
      "inputs": [],
      "name": "owner",
      "outputs": [
        {
          "internalType": "address",
          "name": "",
          "type": "address"
        }
      ],
      "stateMutability": "view",
      "type": "function"
    },
    {
      "inputs": [
        {
          "internalType": "uint256",
          "name": "tokenId",
          "type": "uint256"
        }
      ],
      "name": "ownerOf",
      "outputs": [
        {
          "internalType": "address",
          "name": "",
          "type": "address"
        }
      ],
      "stateMutability": "view",
      "type": "function"
    },
    {
      "inputs": [],
      "name": "renounceOwnership",
      "outputs": [],
      "stateMutability": "nonpayable",
      "type": "function"
    },
    {
      "inputs": [
        {
          "internalType": "address",
          "name": "from",
          "type": "address"
        },
        {
          "internalType": "address",
          "name": "to",
          "type": "address"
        },
        {
          "internalType": "uint256",
          "name": "tokenId",
          "type": "uint256"
        }
      ],
      "name": "safeTransferFrom",
      "outputs": [],
      "stateMutability": "nonpayable",
      "type": "function"
    },
    {
      "inputs": [
        {
          "internalType": "address",
          "name": "from",
          "type": "address"
        },
        {
          "internalType": "address",
          "name": "to",
          "type": "address"
        },
        {
          "internalType": "uint256",
          "name": "tokenId",
          "type": "uint256"
        },
        {
          "internalType": "bytes",
          "name": "data",
          "type": "bytes"
        }
      ],
      "name": "safeTransferFrom",
      "outputs": [],
      "stateMutability": "nonpayable",
      "type": "function"
    },
    {
      "inputs": [
        {
          "internalType": "address",
          "name": "operator",
          "type": "address"
        },
        {
          "internalType": "bool",
          "name": "approved",
          "type": "bool"
        }
      ],
      "name": "setApprovalForAll",
      "outputs": [],
      "stateMutability": "nonpayable",
      "type": "function"
    },
    {
      "inputs": [
        {
          "internalType": "bool",
          "name": "val",
          "type": "bool"
        }
      ],
      "name": "setPaused",
      "outputs": [],
      "stateMutability": "nonpayable",
      "type": "function"
    },
    {
      "inputs": [
        {
          "internalType": "bytes4",
          "name": "interfaceId",
          "type": "bytes4"
        }
      ],
      "name": "supportsInterface",
      "outputs": [
        {
          "internalType": "bool",
          "name": "",
          "type": "bool"
        }
      ],
      "stateMutability": "view",
      "type": "function"
    },
    {
      "inputs": [],
      "name": "symbol",
      "outputs": [
        {
          "internalType": "string",
          "name": "",
          "type": "string"
        }
      ],
      "stateMutability": "view",
      "type": "function"
    },
    {
      "inputs": [
        {
          "internalType": "uint256",
          "name": "index",
          "type": "uint256"
        }
      ],
      "name": "tokenByIndex",
      "outputs": [
        {
          "internalType": "uint256",
          "name": "",
          "type": "uint256"
        }
      ],
      "stateMutability": "view",
      "type": "function"
    },
    {
      "inputs": [],
      "name": "tokenIds",
      "outputs": [
        {
          "internalType": "uint256",
          "name": "",
          "type": "uint256"
        }
      ],
      "stateMutability": "view",
      "type": "function"
    },
    {
      "inputs": [
        {
          "internalType": "address",
          "name": "owner",
          "type": "address"
        },
        {
          "internalType": "uint256",
          "name": "index",
          "type": "uint256"
        }
      ],
      "name": "tokenOfOwnerByIndex",
      "outputs": [
        {
          "internalType": "uint256",
          "name": "",
          "type": "uint256"
        }
      ],
      "stateMutability": "view",
      "type": "function"
    },
    {
      "inputs": [
        {
          "internalType": "uint256",
          "name": "tokenId",
          "type": "uint256"
        }
      ],
      "name": "tokenURI",
      "outputs": [
        {
          "internalType": "string",
          "name": "",
          "type": "string"
        }
      ],
      "stateMutability": "view",
      "type": "function"
    },
    {
      "inputs": [],
      "name": "totalSupply",
      "outputs": [
        {
          "internalType": "uint256",
          "name": "",
          "type": "uint256"
        }
      ],
      "stateMutability": "view",
      "type": "function"
    },
    {
      "inputs": [
        {
          "internalType": "address",
          "name": "from",
          "type": "address"
        },
        {
          "internalType": "address",
          "name": "to",
          "type": "address"
        },
        {
          "internalType": "uint256",
          "name": "tokenId",
          "type": "uint256"
        }
      ],
      "name": "transferFrom",
      "outputs": [],
      "stateMutability": "nonpayable",
      "type": "function"
    },
    {
      "inputs": [
        {
          "internalType": "address",
          "name": "newOwner",
          "type": "address"
        }
      ],
      "name": "transferOwnership",
      "outputs": [],
      "stateMutability": "nonpayable",
      "type": "function"
    },
    {
      "inputs": [],
      "name": "withdraw",
      "outputs": [],
      "stateMutability": "nonpayable",
      "type": "function"
    },
    {
      "stateMutability": "payable",
      "type": "receive"
    }
  ],
  "bytecode": "0x6080604052662386f26fc10000600c55600a600e553480156200002157600080fd5b5060405162003eda38038062003eda833981810160405281019062000047919062000442565b6040518060400160405280600881526020017f4c573350756e6b730000000000000000000000000000000000000000000000008152506040518060400160405280600481526020017f4c573350000000000000000000000000000000000000000000000000000000008152508160009080519060200190620000cb929190620001f5565b508060019080519060200190620000e4929190620001f5565b50505062000107620000fb6200012760201b60201c565b6200012f60201b60201c565b80600b90805190602001906200011f929190620001f5565b5050620004f8565b600033905090565b6000600a60009054906101000a900473ffffffffffffffffffffffffffffffffffffffff16905081600a60006101000a81548173ffffffffffffffffffffffffffffffffffffffff021916908373ffffffffffffffffffffffffffffffffffffffff1602179055508173ffffffffffffffffffffffffffffffffffffffff168173ffffffffffffffffffffffffffffffffffffffff167f8be0079c531659141344cd1fd0a4f28419497f9722a3daafe3b4186f6b6457e060405160405180910390a35050565b8280546200020390620004c2565b90600052602060002090601f01602090048101928262000227576000855562000273565b82601f106200024257805160ff191683800117855562000273565b8280016001018555821562000273579182015b828111156200027257825182559160200191906001019062000255565b5b50905062000282919062000286565b5090565b5b80821115620002a157600081600090555060010162000287565b5090565b6000604051905090565b600080fd5b600080fd5b600080fd5b600080fd5b6000601f19601f8301169050919050565b7f4e487b7100000000000000000000000000000000000000000000000000000000600052604160045260246000fd5b6200030e82620002c3565b810181811067ffffffffffffffff8211171562000330576200032f620002d4565b5b80604052505050565b600062000345620002a5565b905062000353828262000303565b919050565b600067ffffffffffffffff821115620003765762000375620002d4565b5b6200038182620002c3565b9050602081019050919050565b60005b83811015620003ae57808201518184015260208101905062000391565b83811115620003be576000848401525b50505050565b6000620003db620003d58462000358565b62000339565b905082815260208101848484011115620003fa57620003f9620002be565b5b620004078482856200038e565b509392505050565b600082601f830112620004275762000426620002b9565b5b815162000439848260208601620003c4565b91505092915050565b6000602082840312156200045b576200045a620002af565b5b600082015167ffffffffffffffff8111156200047c576200047b620002b4565b5b6200048a848285016200040f565b91505092915050565b7f4e487b7100000000000000000000000000000000000000000000000000000000600052602260045260246000fd5b60006002820490506001821680620004db57607f821691505b60208210811415620004f257620004f162000493565b5b50919050565b6139d280620005086000396000f3fe6080604052600436106101855760003560e01c80634f6ccce7116100d15780638da5cb5b1161008a578063b88d4fde11610064578063b88d4fde14610559578063c87b56dd14610582578063e985e9c5146105bf578063f2fde38b146105fc5761018c565b80638da5cb5b146104da57806395d89b4114610505578063a22cb465146105305761018c565b80634f6ccce7146103b65780635f769621146103f35780636352211e1461041e57806370a082311461045b578063714cff5614610498578063715018a6146104c35761018c565b806316c61ccc1161013e57806323b872dd1161011857806323b872dd146103105780632f745c59146103395780633ccfd60b1461037657806342842e0e1461038d5761018c565b806316c61ccc1461028f57806318160ddd146102ba578063235b6ea1146102e55761018c565b806301ffc9a71461018e57806306fdde03146101cb578063081812fc146101f6578063095ea7b3146102335780631249c58b1461025c57806316c38b3c146102665761018c565b3661018c57005b005b34801561019a57600080fd5b506101b560048036038101906101b091906125ed565b610625565b6040516101c29190612635565b60405180910390f35b3480156101d757600080fd5b506101e061069f565b6040516101ed91906126e9565b60405180910390f35b34801561020257600080fd5b5061021d60048036038101906102189190612741565b610731565b60405161022a91906127af565b60405180910390f35b34801561023f57600080fd5b5061025a600480360381019061025591906127f6565b610777565b005b61026461088f565b005b34801561027257600080fd5b5061028d60048036038101906102889190612862565b610992565b005b34801561029b57600080fd5b506102a46109b7565b6040516102b19190612635565b60405180910390f35b3480156102c657600080fd5b506102cf6109ca565b6040516102dc919061289e565b60405180910390f35b3480156102f157600080fd5b506102fa6109d7565b604051610307919061289e565b60405180910390f35b34801561031c57600080fd5b50610337600480360381019061033291906128b9565b6109dd565b005b34801561034557600080fd5b50610360600480360381019061035b91906127f6565b610a3d565b60405161036d919061289e565b60405180910390f35b34801561038257600080fd5b5061038b610ae2565b005b34801561039957600080fd5b506103b460048036038101906103af91906128b9565b610bac565b005b3480156103c257600080fd5b506103dd60048036038101906103d89190612741565b610bcc565b6040516103ea919061289e565b60405180910390f35b3480156103ff57600080fd5b50610408610c3d565b604051610415919061289e565b60405180910390f35b34801561042a57600080fd5b5061044560048036038101906104409190612741565b610c43565b60405161045291906127af565b60405180910390f35b34801561046757600080fd5b50610482600480360381019061047d919061290c565b610cca565b60405161048f919061289e565b60405180910390f35b3480156104a457600080fd5b506104ad610d82565b6040516104ba919061289e565b60405180910390f35b3480156104cf57600080fd5b506104d8610d88565b005b3480156104e657600080fd5b506104ef610d9c565b6040516104fc91906127af565b60405180910390f35b34801561051157600080fd5b5061051a610dc6565b60405161052791906126e9565b60405180910390f35b34801561053c57600080fd5b5061055760048036038101906105529190612939565b610e58565b005b34801561056557600080fd5b50610580600480360381019061057b9190612aae565b610e6e565b005b34801561058e57600080fd5b506105a960048036038101906105a49190612741565b610ed0565b6040516105b691906126e9565b60405180910390f35b3480156105cb57600080fd5b506105e660048036038101906105e19190612b31565b610f77565b6040516105f39190612635565b60405180910390f35b34801561060857600080fd5b50610623600480360381019061061e919061290c565b61100b565b005b60007f780e9d63000000000000000000000000000000000000000000000000000000007bffffffffffffffffffffffffffffffffffffffffffffffffffffffff1916827bffffffffffffffffffffffffffffffffffffffffffffffffffffffff1916148061069857506106978261108f565b5b9050919050565b6060600080546106ae90612ba0565b80601f01602080910402602001604051908101604052809291908181526020018280546106da90612ba0565b80156107275780601f106106fc57610100808354040283529160200191610727565b820191906000526020600020905b81548152906001019060200180831161070a57829003601f168201915b5050505050905090565b600061073c82611171565b6004600083815260200190815260200160002060009054906101000a900473ffffffffffffffffffffffffffffffffffffffff169050919050565b600061078282610c43565b90508073ffffffffffffffffffffffffffffffffffffffff168373ffffffffffffffffffffffffffffffffffffffff1614156107f3576040517f08c379a00000000000000000000000000000000000000000000000000000000081526004016107ea90612c44565b60405180910390fd5b8073ffffffffffffffffffffffffffffffffffffffff166108126111bc565b73ffffffffffffffffffffffffffffffffffffffff16148061084157506108408161083b6111bc565b610f77565b5b610880576040517f08c379a000000000000000000000000000000000000000000000000000000000815260040161087790612cd6565b60405180910390fd5b61088a83836111c4565b505050565b600d60009054906101000a900460ff16156108df576040517f08c379a00000000000000000000000000000000000000000000000000000000081526004016108d690612d42565b60405180910390fd5b600e54600f5410610925576040517f08c379a000000000000000000000000000000000000000000000000000000000815260040161091c90612dae565b60405180910390fd5b600c5434101561096a576040517f08c379a000000000000000000000000000000000000000000000000000000000815260040161096190612e1a565b60405180910390fd5b6001600f600082825461097d9190612e69565b9250508190555061099033600f5461127d565b565b61099a61129b565b80600d60006101000a81548160ff02191690831515021790555050565b600d60009054906101000a900460ff1681565b6000600880549050905090565b600c5481565b6109ee6109e86111bc565b82611319565b610a2d576040517f08c379a0000000000000000000000000000000000000000000000000000000008152600401610a2490612f31565b60405180910390fd5b610a388383836113ae565b505050565b6000610a4883610cca565b8210610a89576040517f08c379a0000000000000000000000000000000000000000000000000000000008152600401610a8090612fc3565b60405180910390fd5b600660008473ffffffffffffffffffffffffffffffffffffffff1673ffffffffffffffffffffffffffffffffffffffff168152602001908152602001600020600083815260200190815260200160002054905092915050565b610aea61129b565b6000610af4610d9c565b9050600047905060008273ffffffffffffffffffffffffffffffffffffffff1682604051610b2190613014565b60006040518083038185875af1925050503d8060008114610b5e576040519150601f19603f3d011682016040523d82523d6000602084013e610b63565b606091505b5050905080610ba7576040517f08c379a0000000000000000000000000000000000000000000000000000000008152600401610b9e90613075565b60405180910390fd5b505050565b610bc783838360405180602001604052806000815250610e6e565b505050565b6000610bd66109ca565b8210610c17576040517f08c379a0000000000000000000000000000000000000000000000000000000008152600401610c0e90613107565b60405180910390fd5b60088281548110610c2b57610c2a613127565b5b90600052602060002001549050919050565b600e5481565b600080610c4f836116a8565b9050600073ffffffffffffffffffffffffffffffffffffffff168173ffffffffffffffffffffffffffffffffffffffff161415610cc1576040517f08c379a0000000000000000000000000000000000000000000000000000000008152600401610cb8906131a2565b60405180910390fd5b80915050919050565b60008073ffffffffffffffffffffffffffffffffffffffff168273ffffffffffffffffffffffffffffffffffffffff161415610d3b576040517f08c379a0000000000000000000000000000000000000000000000000000000008152600401610d3290613234565b60405180910390fd5b600360008373ffffffffffffffffffffffffffffffffffffffff1673ffffffffffffffffffffffffffffffffffffffff168152602001908152602001600020549050919050565b600f5481565b610d9061129b565b610d9a60006116e5565b565b6000600a60009054906101000a900473ffffffffffffffffffffffffffffffffffffffff16905090565b606060018054610dd590612ba0565b80601f0160208091040260200160405190810160405280929190818152602001828054610e0190612ba0565b8015610e4e5780601f10610e2357610100808354040283529160200191610e4e565b820191906000526020600020905b815481529060010190602001808311610e3157829003601f168201915b5050505050905090565b610e6a610e636111bc565b83836117ab565b5050565b610e7f610e796111bc565b83611319565b610ebe576040517f08c379a0000000000000000000000000000000000000000000000000000000008152600401610eb590612f31565b60405180910390fd5b610eca84848484611918565b50505050565b6060610edb82611974565b610f1a576040517f08c379a0000000000000000000000000000000000000000000000000000000008152600401610f11906132c6565b60405180910390fd5b6000610f246119b5565b90506000815111610f445760405180602001604052806000815250610f6f565b80610f4e84611a47565b604051602001610f5f92919061336e565b6040516020818303038152906040525b915050919050565b6000600560008473ffffffffffffffffffffffffffffffffffffffff1673ffffffffffffffffffffffffffffffffffffffff16815260200190815260200160002060008373ffffffffffffffffffffffffffffffffffffffff1673ffffffffffffffffffffffffffffffffffffffff16815260200190815260200160002060009054906101000a900460ff16905092915050565b61101361129b565b600073ffffffffffffffffffffffffffffffffffffffff168173ffffffffffffffffffffffffffffffffffffffff161415611083576040517f08c379a000000000000000000000000000000000000000000000000000000000815260040161107a9061340f565b60405180910390fd5b61108c816116e5565b50565b60007f80ac58cd000000000000000000000000000000000000000000000000000000007bffffffffffffffffffffffffffffffffffffffffffffffffffffffff1916827bffffffffffffffffffffffffffffffffffffffffffffffffffffffff1916148061115a57507f5b5e139f000000000000000000000000000000000000000000000000000000007bffffffffffffffffffffffffffffffffffffffffffffffffffffffff1916827bffffffffffffffffffffffffffffffffffffffffffffffffffffffff1916145b8061116a575061116982611b1f565b5b9050919050565b61117a81611974565b6111b9576040517f08c379a00000000000000000000000000000000000000000000000000000000081526004016111b0906131a2565b60405180910390fd5b50565b600033905090565b816004600083815260200190815260200160002060006101000a81548173ffffffffffffffffffffffffffffffffffffffff021916908373ffffffffffffffffffffffffffffffffffffffff160217905550808273ffffffffffffffffffffffffffffffffffffffff1661123783610c43565b73ffffffffffffffffffffffffffffffffffffffff167f8c5be1e5ebec7d5bd14f71427d1e84f3dd0314c0f7b2291e5b200ac8c7c3b92560405160405180910390a45050565b611297828260405180602001604052806000815250611b89565b5050565b6112a36111bc565b73ffffffffffffffffffffffffffffffffffffffff166112c1610d9c565b73ffffffffffffffffffffffffffffffffffffffff1614611317576040517f08c379a000000000000000000000000000000000000000000000000000000000815260040161130e9061347b565b60405180910390fd5b565b60008061132583610c43565b90508073ffffffffffffffffffffffffffffffffffffffff168473ffffffffffffffffffffffffffffffffffffffff16148061136757506113668185610f77565b5b806113a557508373ffffffffffffffffffffffffffffffffffffffff1661138d84610731565b73ffffffffffffffffffffffffffffffffffffffff16145b91505092915050565b8273ffffffffffffffffffffffffffffffffffffffff166113ce82610c43565b73ffffffffffffffffffffffffffffffffffffffff1614611424576040517f08c379a000000000000000000000000000000000000000000000000000000000815260040161141b9061350d565b60405180910390fd5b600073ffffffffffffffffffffffffffffffffffffffff168273ffffffffffffffffffffffffffffffffffffffff161415611494576040517f08c379a000000000000000000000000000000000000000000000000000000000815260040161148b9061359f565b60405180910390fd5b6114a18383836001611be4565b8273ffffffffffffffffffffffffffffffffffffffff166114c182610c43565b73ffffffffffffffffffffffffffffffffffffffff1614611517576040517f08c379a000000000000000000000000000000000000000000000000000000000815260040161150e9061350d565b60405180910390fd5b6004600082815260200190815260200160002060006101000a81549073ffffffffffffffffffffffffffffffffffffffff02191690556001600360008573ffffffffffffffffffffffffffffffffffffffff1673ffffffffffffffffffffffffffffffffffffffff168152602001908152602001600020600082825403925050819055506001600360008473ffffffffffffffffffffffffffffffffffffffff1673ffffffffffffffffffffffffffffffffffffffff16815260200190815260200160002060008282540192505081905550816002600083815260200190815260200160002060006101000a81548173ffffffffffffffffffffffffffffffffffffffff021916908373ffffffffffffffffffffffffffffffffffffffff160217905550808273ffffffffffffffffffffffffffffffffffffffff168473ffffffffffffffffffffffffffffffffffffffff167fddf252ad1be2c89b69c2b068fc378daa952ba7f163c4a11628f55a4df523b3ef60405160405180910390a46116a38383836001611d44565b505050565b60006002600083815260200190815260200160002060009054906101000a900473ffffffffffffffffffffffffffffffffffffffff169050919050565b6000600a60009054906101000a900473ffffffffffffffffffffffffffffffffffffffff16905081600a60006101000a81548173ffffffffffffffffffffffffffffffffffffffff021916908373ffffffffffffffffffffffffffffffffffffffff1602179055508173ffffffffffffffffffffffffffffffffffffffff168173ffffffffffffffffffffffffffffffffffffffff167f8be0079c531659141344cd1fd0a4f28419497f9722a3daafe3b4186f6b6457e060405160405180910390a35050565b8173ffffffffffffffffffffffffffffffffffffffff168373ffffffffffffffffffffffffffffffffffffffff16141561181a576040517f08c379a00000000000000000000000000000000000000000000000000000000081526004016118119061360b565b60405180910390fd5b80600560008573ffffffffffffffffffffffffffffffffffffffff1673ffffffffffffffffffffffffffffffffffffffff16815260200190815260200160002060008473ffffffffffffffffffffffffffffffffffffffff1673ffffffffffffffffffffffffffffffffffffffff16815260200190815260200160002060006101000a81548160ff0219169083151502179055508173ffffffffffffffffffffffffffffffffffffffff168373ffffffffffffffffffffffffffffffffffffffff167f17307eab39ab6107e8899845ad3d59bd9653f200f220920489ca2b5937696c318360405161190b9190612635565b60405180910390a3505050565b6119238484846113ae565b61192f84848484611d4a565b61196e576040517f08c379a00000000000000000000000000000000000000000000000000000000081526004016119659061369d565b60405180910390fd5b50505050565b60008073ffffffffffffffffffffffffffffffffffffffff16611996836116a8565b73ffffffffffffffffffffffffffffffffffffffff1614159050919050565b6060600b80546119c490612ba0565b80601f01602080910402602001604051908101604052809291908181526020018280546119f090612ba0565b8015611a3d5780601f10611a1257610100808354040283529160200191611a3d565b820191906000526020600020905b815481529060010190602001808311611a2057829003601f168201915b5050505050905090565b606060006001611a5684611ee1565b01905060008167ffffffffffffffff811115611a7557611a74612983565b5b6040519080825280601f01601f191660200182016040528015611aa75781602001600182028036833780820191505090505b509050600082602001820190505b600115611b14578080600190039150507f3031323334353637383961626364656600000000000000000000000000000000600a86061a8153600a8581611afe57611afd6136bd565b5b0494506000851415611b0f57611b14565b611ab5565b819350505050919050565b60007f01ffc9a7000000000000000000000000000000000000000000000000000000007bffffffffffffffffffffffffffffffffffffffffffffffffffffffff1916827bffffffffffffffffffffffffffffffffffffffffffffffffffffffff1916149050919050565b611b938383612034565b611ba06000848484611d4a565b611bdf576040517f08c379a0000000000000000000000000000000000000000000000000000000008152600401611bd69061369d565b60405180910390fd5b505050565b611bf084848484612252565b6001811115611c34576040517f08c379a0000000000000000000000000000000000000000000000000000000008152600401611c2b9061375e565b60405180910390fd5b6000829050600073ffffffffffffffffffffffffffffffffffffffff168573ffffffffffffffffffffffffffffffffffffffff161415611c7c57611c7781612258565b611cbb565b8373ffffffffffffffffffffffffffffffffffffffff168573ffffffffffffffffffffffffffffffffffffffff1614611cba57611cb985826122a1565b5b5b600073ffffffffffffffffffffffffffffffffffffffff168473ffffffffffffffffffffffffffffffffffffffff161415611cfe57611cf98161240e565b611d3d565b8473ffffffffffffffffffffffffffffffffffffffff168473ffffffffffffffffffffffffffffffffffffffff1614611d3c57611d3b84826124df565b5b5b5050505050565b50505050565b6000611d6b8473ffffffffffffffffffffffffffffffffffffffff1661255e565b15611ed4578373ffffffffffffffffffffffffffffffffffffffff1663150b7a02611d946111bc565b8786866040518563ffffffff1660e01b8152600401611db694939291906137d3565b602060405180830381600087803b158015611dd057600080fd5b505af1925050508015611e0157506040513d601f19601f82011682018060405250810190611dfe9190613834565b60015b611e84573d8060008114611e31576040519150601f19603f3d011682016040523d82523d6000602084013e611e36565b606091505b50600081511415611e7c576040517f08c379a0000000000000000000000000000000000000000000000000000000008152600401611e739061369d565b60405180910390fd5b805181602001fd5b63150b7a0260e01b7bffffffffffffffffffffffffffffffffffffffffffffffffffffffff1916817bffffffffffffffffffffffffffffffffffffffffffffffffffffffff191614915050611ed9565b600190505b949350505050565b600080600090507a184f03e93ff9f4daa797ed6e38ed64bf6a1f0100000000000000008310611f3f577a184f03e93ff9f4daa797ed6e38ed64bf6a1f0100000000000000008381611f3557611f346136bd565b5b0492506040810190505b6d04ee2d6d415b85acef81000000008310611f7c576d04ee2d6d415b85acef81000000008381611f7257611f716136bd565b5b0492506020810190505b662386f26fc100008310611fab57662386f26fc100008381611fa157611fa06136bd565b5b0492506010810190505b6305f5e1008310611fd4576305f5e1008381611fca57611fc96136bd565b5b0492506008810190505b6127108310611ff9576127108381611fef57611fee6136bd565b5b0492506004810190505b6064831061201c5760648381612012576120116136bd565b5b0492506002810190505b600a831061202b576001810190505b80915050919050565b600073ffffffffffffffffffffffffffffffffffffffff168273ffffffffffffffffffffffffffffffffffffffff1614156120a4576040517f08c379a000000000000000000000000000000000000000000000000000000000815260040161209b906138ad565b60405180910390fd5b6120ad81611974565b156120ed576040517f08c379a00000000000000000000000000000000000000000000000000000000081526004016120e490613919565b60405180910390fd5b6120fb600083836001611be4565b61210481611974565b15612144576040517f08c379a000000000000000000000000000000000000000000000000000000000815260040161213b90613919565b60405180910390fd5b6001600360008473ffffffffffffffffffffffffffffffffffffffff1673ffffffffffffffffffffffffffffffffffffffff16815260200190815260200160002060008282540192505081905550816002600083815260200190815260200160002060006101000a81548173ffffffffffffffffffffffffffffffffffffffff021916908373ffffffffffffffffffffffffffffffffffffffff160217905550808273ffffffffffffffffffffffffffffffffffffffff16600073ffffffffffffffffffffffffffffffffffffffff167fddf252ad1be2c89b69c2b068fc378daa952ba7f163c4a11628f55a4df523b3ef60405160405180910390a461224e600083836001611d44565b5050565b50505050565b6008805490506009600083815260200190815260200160002081905550600881908060018154018082558091505060019003906000526020600020016000909190919091505550565b600060016122ae84610cca565b6122b89190613939565b905060006007600084815260200190815260200160002054905081811461239d576000600660008673ffffffffffffffffffffffffffffffffffffffff1673ffffffffffffffffffffffffffffffffffffffff168152602001908152602001600020600084815260200190815260200160002054905080600660008773ffffffffffffffffffffffffffffffffffffffff1673ffffffffffffffffffffffffffffffffffffffff168152602001908152602001600020600084815260200190815260200160002081905550816007600083815260200190815260200160002081905550505b6007600084815260200190815260200160002060009055600660008573ffffffffffffffffffffffffffffffffffffffff1673ffffffffffffffffffffffffffffffffffffffff16815260200190815260200160002060008381526020019081526020016000206000905550505050565b600060016008805490506124229190613939565b905060006009600084815260200190815260200160002054905060006008838154811061245257612451613127565b5b90600052602060002001549050806008838154811061247457612473613127565b5b9060005260206000200181905550816009600083815260200190815260200160002081905550600960008581526020019081526020016000206000905560088054806124c3576124c261396d565b5b6001900381819060005260206000200160009055905550505050565b60006124ea83610cca565b905081600660008573ffffffffffffffffffffffffffffffffffffffff1673ffffffffffffffffffffffffffffffffffffffff168152602001908152602001600020600083815260200190815260200160002081905550806007600084815260200190815260200160002081905550505050565b6000808273ffffffffffffffffffffffffffffffffffffffff163b119050919050565b6000604051905090565b600080fd5b600080fd5b60007fffffffff0000000000000000000000000000000000000000000000000000000082169050919050565b6125ca81612595565b81146125d557600080fd5b50565b6000813590506125e7816125c1565b92915050565b6000602082840312156126035761260261258b565b5b6000612611848285016125d8565b91505092915050565b60008115159050919050565b61262f8161261a565b82525050565b600060208201905061264a6000830184612626565b92915050565b600081519050919050565b600082825260208201905092915050565b60005b8381101561268a57808201518184015260208101905061266f565b83811115612699576000848401525b50505050565b6000601f19601f8301169050919050565b60006126bb82612650565b6126c5818561265b565b93506126d581856020860161266c565b6126de8161269f565b840191505092915050565b6000602082019050818103600083015261270381846126b0565b905092915050565b6000819050919050565b61271e8161270b565b811461272957600080fd5b50565b60008135905061273b81612715565b92915050565b6000602082840312156127575761275661258b565b5b60006127658482850161272c565b91505092915050565b600073ffffffffffffffffffffffffffffffffffffffff82169050919050565b60006127998261276e565b9050919050565b6127a98161278e565b82525050565b60006020820190506127c460008301846127a0565b92915050565b6127d38161278e565b81146127de57600080fd5b50565b6000813590506127f0816127ca565b92915050565b6000806040838503121561280d5761280c61258b565b5b600061281b858286016127e1565b925050602061282c8582860161272c565b9150509250929050565b61283f8161261a565b811461284a57600080fd5b50565b60008135905061285c81612836565b92915050565b6000602082840312156128785761287761258b565b5b60006128868482850161284d565b91505092915050565b6128988161270b565b82525050565b60006020820190506128b3600083018461288f565b92915050565b6000806000606084860312156128d2576128d161258b565b5b60006128e0868287016127e1565b93505060206128f1868287016127e1565b92505060406129028682870161272c565b9150509250925092565b6000602082840312156129225761292161258b565b5b6000612930848285016127e1565b91505092915050565b600080604083850312156129505761294f61258b565b5b600061295e858286016127e1565b925050602061296f8582860161284d565b9150509250929050565b600080fd5b600080fd5b7f4e487b7100000000000000000000000000000000000000000000000000000000600052604160045260246000fd5b6129bb8261269f565b810181811067ffffffffffffffff821117156129da576129d9612983565b5b80604052505050565b60006129ed612581565b90506129f982826129b2565b919050565b600067ffffffffffffffff821115612a1957612a18612983565b5b612a228261269f565b9050602081019050919050565b82818337600083830152505050565b6000612a51612a4c846129fe565b6129e3565b905082815260208101848484011115612a6d57612a6c61297e565b5b612a78848285612a2f565b509392505050565b600082601f830112612a9557612a94612979565b5b8135612aa5848260208601612a3e565b91505092915050565b60008060008060808587031215612ac857612ac761258b565b5b6000612ad6878288016127e1565b9450506020612ae7878288016127e1565b9350506040612af88782880161272c565b925050606085013567ffffffffffffffff811115612b1957612b18612590565b5b612b2587828801612a80565b91505092959194509250565b60008060408385031215612b4857612b4761258b565b5b6000612b56858286016127e1565b9250506020612b67858286016127e1565b9150509250929050565b7f4e487b7100000000000000000000000000000000000000000000000000000000600052602260045260246000fd5b60006002820490506001821680612bb857607f821691505b60208210811415612bcc57612bcb612b71565b5b50919050565b7f4552433732313a20617070726f76616c20746f2063757272656e74206f776e6560008201527f7200000000000000000000000000000000000000000000000000000000000000602082015250565b6000612c2e60218361265b565b9150612c3982612bd2565b604082019050919050565b60006020820190508181036000830152612c5d81612c21565b9050919050565b7f4552433732313a20617070726f76652063616c6c6572206973206e6f7420746f60008201527f6b656e206f776e6572206f7220617070726f76656420666f7220616c6c000000602082015250565b6000612cc0603d8361265b565b9150612ccb82612c64565b604082019050919050565b60006020820190508181036000830152612cef81612cb3565b9050919050565b7f436f6e74726163742063757272656e746c792070617573656400000000000000600082015250565b6000612d2c60198361265b565b9150612d3782612cf6565b602082019050919050565b60006020820190508181036000830152612d5b81612d1f565b9050919050565b7f457863656564206d6178696d756d204c573350756e6b7320737570706c790000600082015250565b6000612d98601e8361265b565b9150612da382612d62565b602082019050919050565b60006020820190508181036000830152612dc781612d8b565b9050919050565b7f45746865722073656e74206973206e6f7420636f727265637400000000000000600082015250565b6000612e0460198361265b565b9150612e0f82612dce565b602082019050919050565b60006020820190508181036000830152612e3381612df7565b9050919050565b7f4e487b7100000000000000000000000000000000000000000000000000000000600052601160045260246000fd5b6000612e748261270b565b9150612e7f8361270b565b9250827fffffffffffffffffffffffffffffffffffffffffffffffffffffffffffffffff03821115612eb457612eb3612e3a565b5b828201905092915050565b7f4552433732313a2063616c6c6572206973206e6f7420746f6b656e206f776e6560008201527f72206f7220617070726f76656400000000000000000000000000000000000000602082015250565b6000612f1b602d8361265b565b9150612f2682612ebf565b604082019050919050565b60006020820190508181036000830152612f4a81612f0e565b9050919050565b7f455243373231456e756d657261626c653a206f776e657220696e646578206f7560008201527f74206f6620626f756e6473000000000000000000000000000000000000000000602082015250565b6000612fad602b8361265b565b9150612fb882612f51565b604082019050919050565b60006020820190508181036000830152612fdc81612fa0565b9050919050565b600081905092915050565b50565b6000612ffe600083612fe3565b915061300982612fee565b600082019050919050565b600061301f82612ff1565b9150819050919050565b7f4661696c656420746f2073656e64204574686572000000000000000000000000600082015250565b600061305f60148361265b565b915061306a82613029565b602082019050919050565b6000602082019050818103600083015261308e81613052565b9050919050565b7f455243373231456e756d657261626c653a20676c6f62616c20696e646578206f60008201527f7574206f6620626f756e64730000000000000000000000000000000000000000602082015250565b60006130f1602c8361265b565b91506130fc82613095565b604082019050919050565b60006020820190508181036000830152613120816130e4565b9050919050565b7f4e487b7100000000000000000000000000000000000000000000000000000000600052603260045260246000fd5b7f4552433732313a20696e76616c696420746f6b656e2049440000000000000000600082015250565b600061318c60188361265b565b915061319782613156565b602082019050919050565b600060208201905081810360008301526131bb8161317f565b9050919050565b7f4552433732313a2061646472657373207a65726f206973206e6f74206120766160008201527f6c6964206f776e65720000000000000000000000000000000000000000000000602082015250565b600061321e60298361265b565b9150613229826131c2565b604082019050919050565b6000602082019050818103600083015261324d81613211565b9050919050565b7f4552433732314d657461646174613a2055524920717565727920666f72206e6f60008201527f6e6578697374656e7420746f6b656e0000000000000000000000000000000000602082015250565b60006132b0602f8361265b565b91506132bb82613254565b604082019050919050565b600060208201905081810360008301526132df816132a3565b9050919050565b600081905092915050565b60006132fc82612650565b61330681856132e6565b935061331681856020860161266c565b80840191505092915050565b7f2e6a736f6e000000000000000000000000000000000000000000000000000000600082015250565b60006133586005836132e6565b915061336382613322565b600582019050919050565b600061337a82856132f1565b915061338682846132f1565b91506133918261334b565b91508190509392505050565b7f4f776e61626c653a206e6577206f776e657220697320746865207a65726f206160008201527f6464726573730000000000000000000000000000000000000000000000000000602082015250565b60006133f960268361265b565b91506134048261339d565b604082019050919050565b60006020820190508181036000830152613428816133ec565b9050919050565b7f4f776e61626c653a2063616c6c6572206973206e6f7420746865206f776e6572600082015250565b600061346560208361265b565b91506134708261342f565b602082019050919050565b6000602082019050818103600083015261349481613458565b9050919050565b7f4552433732313a207472616e736665722066726f6d20696e636f72726563742060008201527f6f776e6572000000000000000000000000000000000000000000000000000000602082015250565b60006134f760258361265b565b91506135028261349b565b604082019050919050565b60006020820190508181036000830152613526816134ea565b9050919050565b7f4552433732313a207472616e7366657220746f20746865207a65726f2061646460008201527f7265737300000000000000000000000000000000000000000000000000000000602082015250565b600061358960248361265b565b91506135948261352d565b604082019050919050565b600060208201905081810360008301526135b88161357c565b9050919050565b7f4552433732313a20617070726f766520746f2063616c6c657200000000000000600082015250565b60006135f560198361265b565b9150613600826135bf565b602082019050919050565b60006020820190508181036000830152613624816135e8565b9050919050565b7f4552433732313a207472616e7366657220746f206e6f6e20455243373231526560008201527f63656976657220696d706c656d656e7465720000000000000000000000000000602082015250565b600061368760328361265b565b91506136928261362b565b604082019050919050565b600060208201905081810360008301526136b68161367a565b9050919050565b7f4e487b7100000000000000000000000000000000000000000000000000000000600052601260045260246000fd5b7f455243373231456e756d657261626c653a20636f6e736563757469766520747260008201527f616e7366657273206e6f7420737570706f727465640000000000000000000000602082015250565b600061374860358361265b565b9150613753826136ec565b604082019050919050565b600060208201905081810360008301526137778161373b565b9050919050565b600081519050919050565b600082825260208201905092915050565b60006137a58261377e565b6137af8185613789565b93506137bf81856020860161266c565b6137c88161269f565b840191505092915050565b60006080820190506137e860008301876127a0565b6137f560208301866127a0565b613802604083018561288f565b8181036060830152613814818461379a565b905095945050505050565b60008151905061382e816125c1565b92915050565b60006020828403121561384a5761384961258b565b5b60006138588482850161381f565b91505092915050565b7f4552433732313a206d696e7420746f20746865207a65726f2061646472657373600082015250565b600061389760208361265b565b91506138a282613861565b602082019050919050565b600060208201905081810360008301526138c68161388a565b9050919050565b7f4552433732313a20746f6b656e20616c7265616479206d696e74656400000000600082015250565b6000613903601c8361265b565b915061390e826138cd565b602082019050919050565b60006020820190508181036000830152613932816138f6565b9050919050565b60006139448261270b565b915061394f8361270b565b92508282101561396257613961612e3a565b5b828203905092915050565b7f4e487b7100000000000000000000000000000000000000000000000000000000600052603160045260246000fdfea2646970667358221220174c1927cba8a5b51c1335fa4eee00e2d429b730958a634deec27f1efe36314664736f6c63430008090033",
  "linkReferences": {},
  "deployedLinkReferences": {}
}